:100000000C9446000C9465000C9465000C946500FB
:100010000C9465000C9465000C9465000C946500CC
:100020000C9465000C9465000C9465000C946500BC
:100030000C9465000C94B4000C9465000C9465005D
:100040000C9465000C9465000C9465000C9465009C
:100050000C9465000C9465000C9465000C9465008C
:100060000C9465000C9465000C9465000C9465007C
:100070000C9465000C9465000C9465000C9465006C
:100080000C9465000C9465000C94650011241FBE4F
:10009000CFEFD0E4DEBFCDBF11E0A0E0B1E0EAEFEA
:1000A000F2E000E00BBF02C007900D92A231B10751
:1000B000D9F721E0A2E1B1E001C01D92AA31B20757
:1000C000E1F70E9461010C947B010C940000CF9336
:1000D000C82F8A3019F48DE00E9467008091C0001B
:1000E00085FFFCCFC093C60080E090E0CF910895DB
:1000F00060930E0170930F01809310019093110192
:100100006093120170931301809314019093150171
:1001100008958BE0809381008DE790E090938900B3
:100120008093880082E080936F0010928500109287
:10013000840080910E0190910F01A0911001B09167
:1001400011018093120190931301A0931401B093B5
:1001500015018FB780688FBF0895109281000895B0
:1001600081E08093160108951F920F920FB60F92AF
:1001700011240BB60F922F933F934F935F936F937E
:100180007F938F939F93AF93BF93EF93FF93809150
:10019000120190911301A0911401B09115010197E2
:1001A000A109B1098093120190931301A093140146
:1001B000B0931501892B8A2B8B2B91F40E94B000F0
:1001C00080910E0190910F01A0911001B091110149
:1001D0008093120190931301A0931401B093150121
:1001E000FF91EF91BF91AF919F918F917F916F910F
:1001F0005F914F913F912F910F900BBE0F900FBECB
:100200000F901F90189580911701909118010097F9
:1002100019F0059780F50BC081E090E090931801EC
:100220008093170187E08093190185B928C0009950
:1002300009C0019907C084E090E090931801809371
:1002400017011DC0009907C082E090E0909318014B
:100250008093170114C0019907C083E090E0909348
:100260001801809317010BC081E090E09093180172
:100270008093170104C01092180110921701809109
:100280001701909118018330910571F08430910528
:10029000A1F00297A9F480911901893018F48F5FB9
:1002A0008093190185B9089580911901882319F067
:1002B00081508093190185B908951092190115B8DC
:1002C000089511B88FEF82B984B915B8109218014A
:1002D0001092170164E670E080E090E00E947800E0
:1002E0000E9489000E940301809116018823E1F396
:0A02F00010921601F7CFF894FFCF2B
:1002FA00000000020000000067000000000001008A
:02030A000000F1
:00000001FF
