:100000000C9446000C9465000C9465000C946500FB
:100010000C9465000C9465000C9465000C946500CC
:100020000C9465000C9465000C9465000C946500BC
:100030000C9465000C94B4000C9465000C9465005D
:100040000C9465000C9465000C9465000C9465009C
:100050000C9465000C9465000C9465000C9465008C
:100060000C9465000C9465000C9465000C9465007C
:100070000C9465000C9465000C9465000C9465006C
:100080000C9465000C9465000C94650011241FBE4F
:10009000CFEFD0E4DEBFCDBF11E0A0E0B1E0E2E7FA
:1000A000F4E000E00BBF02C007900D92A231B1074F
:1000B000D9F721E0A2E1B1E001C01D92AC31B20755
:1000C000E1F70E941D020C9437020C940000CF93BC
:1000D000C82F8A3019F48DE00E9467008091C0001B
:1000E00085FFFCCFC093C60080E090E0CF910895DB
:1000F00060930E0170930F01809310019093110192
:100100006093120170931301809314019093150171
:1001100008958BE0809381008DE790E090938900B3
:100120008093880082E080936F0010928500109287
:10013000840080910E0190910F01A0911001B09167
:1001400011018093120190931301A0931401B093B5
:1001500015018FB780688FBF0895109281000895B0
:1001600081E08093160108951F920F920FB60F92AF
:1001700011240BB60F922F933F934F935F936F937E
:100180007F938F939F93AF93BF93EF93FF93809150
:10019000120190911301A0911401B09115010197E2
:1001A000A109B1098093120190931301A093140146
:1001B000B0931501892B8A2B8B2B91F40E94B000F0
:1001C00080910E0190910F01A0911001B091110149
:1001D0008093120190931301A0931401B093150121
:1001E000FF91EF91BF91AF919F918F917F916F910F
:1001F0005F914F913F912F910F900BBE0F900FBECB
:100200000F901F90189580911701909118018230DE
:10021000910509F445C028F4009759F00197A1F021
:10022000BBC08330910509F463C0049709F488C00A
:10023000B3C081E090E0909318018093170187E0AC
:1002400080931B0185B9ACC0009909C0019907C012
:1002500084E090E09093180180931701A1C0009969
:100260000BC082E090E090931801809317011092E8
:100270001A011092190194C001990BC083E090E01B
:10028000909318018093170110921A01109219018E
:1002900087C081E090E0909318018093170180C09F
:1002A000009909C0019907C084E090E0909318017B
:1002B0008093170175C0009907C082E090E0909389
:1002C0001801809317016CC001990BC083E090E086
:1002D000909318018093170110921A01109219013E
:1002E0005FC081E090E0909318018093170158C09F
:1002F000009909C0019907C084E090E0909318012B
:10030000809317014DC000990BC082E090E090935C
:1003100018018093170110921A011092190140C020
:10032000019907C083E090E0909318018093170132
:1003300037C081E090E0909318018093170130C09E
:10034000009909C0019907C084E090E090931801DA
:100350008093170125C000990BC082E090E0909334
:1003600018018093170110921A011092190118C0F8
:1003700001990BC083E090E09093180180931701DE
:1003800010921A01109219010BC081E090E0909335
:1003900018018093170104C01092180110921701E0
:1003A00080911701909118018330910521F18430DB
:1003B0009105F9F1029709F03FC080911B01893046
:1003C00048F42091190130911A01232B19F48F5F01
:1003D00080931B0185B98091190190911A018A308F
:1003E000910510F4019602C080E090E090931A010C
:1003F00080931901089580911B01882349F0209171
:10040000190130911A01232B19F4815080931B019B
:1004100085B98091190190911A018A30910510F4E3
:10042000019602C080E090E090931A018093190138
:10043000089510921B0115B8089511B88FEF82B975
:1004400084B915B8109218011092170164E670E093
:1004500080E090E00E9478000E9489000E940301E1
:10046000809116018823E1F310921601F7CFF894DA
:02047000FFCFBC
:100472000000000200000000670000000000010010
:02048200000078
:00000001FF
